:1000000042EF00F00C496E6963696F000A5365673F
:10001000756E64610D000C31323334353637383942
:100020003031323334353637383930313233343594
:10003000363738393031323334350000EA6A060E4B
:10004000E96EEF500DE0020E016E006A002EFED741
:10005000012EFBD7970E006E002EFED7EF2EF3D7A2
:1000600012000900F5520DE0F6CF05F0F7CF06F0CB
:10007000F5509EA8FED7AD6E05C0F6FF06C0F7FF8F
:10008000F0D71200F86AD09E0C0EAF6EA20EAC6EC6
:10009000900EAB6EC180C182C184C196040E056E04
:1000A000FA0E066ECBDF052EFBD7040EF66E000EA1
:1000B000F76ED7DF0C0EF66E000EF76ED2DF928071
:1000C00080B00BD0320E066EB9DF928080B005D0C2
:1000D000160EF66E000EF76EC4DFF1D7000E016E3D
:0200E00003001B
:020000040030CA
:0E00000000220D0E000180000FC00FE00F4027
:00000001FF
;PIC18F452
;CRC=9342  CREATED="27-fev-15 15:59"
