:10000000DFEF03F00C496E6963696F000A5365679F
:10001000756E64610000EA6A090EE96EEF500DE04A
:10002000020E016E006A002EFED7012EFBD7970E3E
:10003000006E002EFED7EF2EF3D712000900F55206
:100040000DE0F6CF08F0F7CF09F0F5509EA8FED7E7
:10005000AD6E08C0F6FF09C0F7FFF0D71200800EA2
:10006000D8B2111A166A176A0DC015F01150151A78
:100070000C50D8B4DCD0146E006E1050D8B4E0D060
:10008000145ED8B481D03DE311C01AF01A8E12C0AC
:1000900019F013C018F0176AD8901A3219321832B2
:1000A0001732142EF8D715AE03D01680DDD0169077
:1000B00014901688EA6A0F0EE96EE9D0169815BEFC
:1000C0000AD014A013D01A32193218321732002A6B
:1000D000D8B4C5D00BD01ABE0CD0D890173618366D
:1000E00019361A360006D8B4BAD0F5D7168C6BD0AC
:1000F000169C0DC015F00DAE02D01A8EA9D01A9E16
:10010000A7D010C014F010C000F00C50145E0DC049
:100110001AF01A8E0EC019F00FC018F0176AD89096
:100120001A32193218321732142EF8D715AE03D0FE
:1001300016829AD016921490168AEA6A130EE96E05
:10014000A6D0169A15BE0AD014A013D01A321932AE
:1001500018321732002AD8B482D00BD01ABE0CD075
:10016000D8901736183619361A360006D8B477D014
:10017000F5D7168E28D0169E11C015F011AE02D0FC
:100180001A8E66D01A9E64D011C01AF01A8E12C050
:1001900019F013C018F015AE04D01A9E168464D05E
:1001A0001694176A1490EA6A0F0EE96E70D015BEA5
:1001B0001CD00DC015F014A006D01A321932183216
:1001C0001732002A4CE017AE0BD0182A09E1192A81
:1001D00007E11A2A05E11A3219321832002A3FE0E3
:1001E00016BC86D716BEC7D71CD0800E1A1A1AAEF8
:1001F00004D03AD011C015F00AD00DC015F01A5233
:1002000006E1195204E1185202E1006A21D01ABE37
:1002100008D0D8901736183619361A36002EF7D768
:100220001ED015AE02D01A8E13D01A9E11D010C057
:1002300000F011C01AF012C019F013C018F008D065
:100240000CC000F00DC01AF00EC019F00FC018F06D
:100250001AC001F019C002F018C003F034D0006ACF
:10026000016A026A036A2FD0176A181E191E1A1E25
:10027000171E172A05E1182A03E1192A01E11A2A93
:1002800016B015D716B256D716B48AD7B3D7EF50D3
:10029000182605E3192A03E11A2AD8B41480ED526E
:1002A000EF50192603E31A2AD8B41480ED52EF5008
:1002B000EFBE01D0800A1A26D8B0148016B8FED638
:1002C00016BA3FD774D712000F50016A0E5C03E2D2
:1002D0000EC000F00CD0006A080E106E0E3600360C
:1002E0000F50005CD8B0006E0136102EF7D7120008
:1002F000200E09A8300E0A6E08C000F008AE08D023
:10030000001E002A00C008F02D0E0A6E098E09801A
:10031000015008C00EF0640E0F6ED6DF00C008F06A
:10032000300E01240B6E08C00EF00A0E0F6ECCDFEB
:10033000300E00240D6E300E01240C6E0AC000F049
:10034000300E0B5C04E0098209BE098412D00AC099
:100350000BF0200E0A6E300E0C5C04E0098009BE22
:10036000098207D0D8A4098004E10BC00CF0200E4C
:100370000B6E09B405D009B207D009B009D00CD072
:100380000A509EA8FED7AD6E0B509EA8FED7AD6E4C
:100390000C509EA8FED7AD6E0D509EA8FED7AD6E38
:1003A00012001D50B6081D6E036A1EC021F01E8E7D
:1003B000D8901E321F322032033202320132003214
:1003C0001D2EF6D721AE0BD0001E011E021E031EED
:1003D000002AD8B4012AD8B4022AD8B4032A1200B9
:1003E000B60E006E036A026A016A0C500D100E1000
:1003F0000F1002E1006A0DD0D89001BE09D00C3672
:100400000D360E360F36033602360136002EF4D77F
:10041000019E6BEF04F01D50D8B471D0006E2150D6
:10042000D8B46DD0002604E3810E002668E204D023
:100430007F0E005E64E363E01EC025F02250251AA3
:100440001E8E228E20502402F4CF27F01F5023024C
:10045000F4CF03F0F3CF26F02402F3502726F45014
:100460002622000E032220502302F3502726F450A8
:100470002622000E026A032202221E502402F3509A
:100480002626F4500322000E02221E502302F350AF
:100490000326F4500222000E016A0122205022029B
:1004A000F3502626F4500322000E022201221F5090
:1004B0002202F3500326F4500222000E01221E50A5
:1004C0002202F3500226F4500122002A01BE05D078
:1004D00026360336023601360006000E26AE0AD056
:1004E000032A02220122015005E1025003E10350D8
:1004F00001E1002A25BE018E25AE019E04D0006ACE
:10050000016A026A036A1200D8B203D0EA6A250EB1
:10051000E96E006A016A026A036A256A266A276A26
:10052000286A24502310221021102CE0200E296E5E
:10053000D8901D361E361F362036253626362736ED
:1005400028362450285C08E12350275C05E122501E
:10055000265C02E12150255C0FE32150255E2250EC
:10056000D8A0223C265E2350D8A0233C275E2450EE
:10057000D8A0243C285ED8800036013602360336E7
:10058000292ED6D725C0EFFF26C0ECFF27C0ECFFF1
:1005900028C0ECFF1200E950146E3B0E1B6E9A0E41
:1005A0001A6ECA0E196E186A0A0E166ED882EA6A98
:1005B000100EE96E13C020F012C01FF011C01EF023
:1005C00010C01DF01BC024F01AC023F019C022F087
:1005D00018C021F099DF015000520FE11650010AB6
:1005E0000CE014500BE00F0B165C01E00DE214BEA2
:1005F0000BD014BC03D0200E02D0146A300E00269B
:1006000000509EA8FED7AD6ED8921BC020F01AC035
:100610001FF019C01EF018C01DF0246A236A226A58
:100620000A0E216E71DF03C01BF002C01AF001C078
:1006300019F000C018F0162EB9D71200E950156E47
:100640001450176E19E013C020F012C01FF011C033
:100650001EF010C01DF0246A236A200E226E820E46
:10066000216ED9DE03C013F002C012F001C011F0F8
:1006700000C010F0172EE7D713C020F012C01FF0F3
:1006800011C01EF010C01DF08CDE03C013F002C0BC
:1006900012F001C011F000C010F013AE0DD015061D
:1006A000158A101E111E121E131E102AD8B4112AEC
:1006B000D8B4122AD8B4132A3B0E1C6E9A0E1B6EA5
:1006C000CA0E1A6E196A0A0E176E1450D8B4152A7B
:1006D000D882EA6A100EE96E13C020F012C01FF033
:1006E00011C01EF010C01DF01CC024F01BC023F070
:1006F0001AC022F019C021F007DF015000520FE1AB
:100700001428175C0CE015500CE00F0B175C01E08F
:100710003BE215BE39D015BC04D0200E30D0200EDF
:10072000151615AA0DD0159A1450D8A41506005008
:10073000156E2D0E9EA8FED7AD6E1550006E156A73
:100740001450175C0BE10050156E2E0E9EA8FED7BC
:10075000AD6E1550006E200E1516000E300E15AA47
:100760000ED0159A1450D8A415060050156E2D0EF3
:100770009EA8FED7AD6E1550006E156A300E00268D
:1007800000509EA8FED7AD6ED8921CC020F01BC0B2
:100790001FF01AC01EF019C01DF0246A236A226AD5
:1007A0000A0E216EB1DE03C01CF002C01BF001C0B6
:1007B0001AF000C019F0172E8BD7D5EF04F0F86AA5
:1007C000D09EEA6AE96A0C0EAF6EA20EAC6E900E75
:1007D000AB6EC180C182C184C196040E086EFA0E50
:1007E000096E19DC082EFBD7040EF66E000EF76EAC
:1007F00025DC0C0EF66E000EF76E20DC928080B0C9
:10080000D4D0320E096E07DC928080B0CED0D89260
:1008100007C00FF006C00EF005C00DF004C00CF0CC
:10082000E10E136E7A0E126E540E116E7E0E106E65
:1008300016DC03C007F002C006F001C005F000C0DE
:1008400004F00C0E9EA8FED7AD6E550E9EA8FED7E6
:10085000AD6E010E086E180E096E4ADD410E9EA89F
:10086000FED7AD6E010E086E180E096E41DD520EF8
:100870009EA8FED7AD6E086A180E096E39DD420ECD
:100880009EA8FED7AD6E010E086E180E096E30DD03
:1008900007C020F006C01FF005C01EF004C01DF008
:1008A00080DD03C00BF002C00AF001C009F000C0F7
:1008B00008F007C020F006C01FF005C01EF004C0FD
:1008C0001DF06FDD03C00FF002C00EF001C00DF08F
:1008D00000C00CF085D5D88207C00FF006C00EF01E
:1008E00005C00DF004C00CF003C013F002C012F0FC
:1008F00001C011F000C010F02FEC00F000C00CF0AF
:1009000001C00DF002C00EF003C00FF003C020F0D4
:1009100002C01FF001C01EF000C01DF0246A236A4F
:10092000480E226E850E216E76DD03C020F002C0D7
:100930001FF001C01EF000C01DF033DD03C00FF03A
:1009400002C00EF001C00DF000C00CF00A0E9EA80F
:10095000FED7AD6E050EE96E0BC013F00AC012F0A3
:1009600009C011F008C010F016DE2E0E9EA8FED7AA
:10097000AD6E020EE96E0FC013F00EC012F00DC086
:1009800011F00CC010F007DE200E9EA8FED7AD6E51
:10099000890EE96EE10E136E7A0E126E730E116EF1
:1009A000840E106E020E146E49D628D7000E016E0A
:0209B000030042
:020000040030CA
:0E00000000220D0E000180000FC00FE00F4027
:00000001FF
;PIC18F452
;CRC=EDDA  CREATED="19-jul-13 14:11"
