:1000000042EF00F00C496E6963696F000A5365673F
:10001000756E646100000C3132333435363738394F
:100020003031323334353637383930313233343594
:10003000363738393031323334350000EA6A060E4B
:10004000E96EEF500DE0020E016E006A002EFED741
:10005000012EFBD7970E006E002EFED7EF2EF3D7A2
:1000600012000900F5520DE0F6CF05F0F7CF06F0CB
:10007000F5509EA8FED7AD6E05C0F6FF06C0F7FF8F
:10008000F0D71200F86AD09EEA6AE96A0C0EAF6EE9
:10009000A20EAC6E900EAB6EC180C182C184C196BF
:1000A000040E056EFA0E066EC9DF052EFBD7040E90
:1000B000F66E000EF76ED5DF0C0EF66E000EF76EC4
:1000C000D0DF928080B00BD0320E066EB7DF928008
:1000D00080B005D0160EF66E000EF76EC2DFF1D7B7
:0600E000000E016E03009A
:020000040030CA
:0E00000000220D0E000180000FC00FE00F4027
:00000001FF
;PIC18F452
;CRC=7C9E  CREATED="25-fev-14 11:16"
