:10000000A8EF00F00C496E6963696F00EA6A060E9A
:10001000E96EEF500DE0020E016E006A002EFED771
:10002000012EFBD7970E006E002EFED7EF2EF3D7D2
:1000300012000900F5520DE0F6CF05F0F7CF06F0FB
:10004000F5509EA8FED7AD6E05C0F6FF06C0F7FFBF
:10005000F0D7C2EF00F00C50016A0B5C03E20BC05A
:1000600000F00CD0006A080E0D6E0B3600360C50F6
:10007000005CD8B0006E01360D2EF7D71200200EAE
:1000800006A8300E076E05C000F005AE07D0001EB2
:10009000002A00C005F02D0E076E068E015005C027
:1000A0000BF0640E0C6ED7DF00C005F0300E01249B
:1000B000086E05C00BF00A0E0C6ECDDF300E00246A
:1000C0000A6E300E0124096E07C000F006A602D0A9
:1000D00006AE069406B80BD006AE22D006B420D0E9
:1000E00000C008F006B21CD000C009F019D0300ED4
:1000F000085C16E100C008F0200E076E06A604D0CA
:100100000694068206AE0692300E095C09E100C034
:1001100009F0200E086E06A6F7D7069206AE0690E6
:1001200006A404D007509EA8FED7AD6E06A204D048
:1001300008509EA8FED7AD6E06A004D009509EA818
:10014000FED7AD6E0A509EA8FED7AD6ED9EF00F077
:10015000F86AD09EEA6AE96A0C0EAF6EA20EAC6E27
:10016000900EAB6EC180C182C184C196040E056E33
:10017000FA0E066E4BDF052EFBD7040EF66E000E50
:10018000F76E57D7928080B018D0320E066E3EDFE1
:10019000928080B012D0042A04509EA8FED7AD6E83
:1001A0002D0E9EA8FED7AD6E04C005F01F0E066E84
:1001B00066D7200E9EA8FED7AD6EE4D7000E016E66
:0201C00003003A
:020000040030CA
:0E00000000220D0E000180000FC00FE00F4027
:00000001FF
;PIC18F452
;CRC=1AB5  CREATED="22-abr-13 08:21"
