:1000000001308A0032290000FF00030E8301A100A5
:100010007F08A0000A08A7008A01A00E0408A20019
:100020007708A3007808A4007908A5007A08A6003C
:10003000831383128C308400801E20288C1A46285B
:100040008C308400001C26280C18402822088400CC
:100050002308F7002408F8002508F9002608FA000C
:1000600027088A00210E8300FF0E7F0E09000A1068
:100070008A100A11820744346F346E3465340034B8
:100080000C1090014A140C108A1126288C124B086F
:10009000CB0A283E840083138C1E4C281A0880004B
:1000A00028304B078400831380018F018E01853037
:1000B00090008C128A112628543084008313000883
:1000C000031970280130F800F701F70B6528F80BC9
:1000D00064284A30F700F70B6B286E28800B6228E3
:1000E000080055187528051376280517831605137B
:1000F0008312D5187D2885137E28851783168513CE
:1001000083125519852805108628051483160510B5
:100110008312D5198D2885108E2885148316851095
:1001200085118312851583168511831285110800A8
:100130008316051183120511D208031DA12805118C
:10014000A2280515831605112030F700F70BA62805
:10015000A9280000851183128511530ED4000F3099
:10016000D4055408D500712053080F39D400D500A8
:1001700071200130D4005C20080083160511831221
:1001800005118316851183128511831605138312B9
:1001900005138316851383128513831605108312A6
:1001A000051083168510831285100F30D4005C2053
:1001B0000130CC004C08033C031CE6280330D5007A
:1001C00071200530D4005C20CC0ADA280230D5003A
:1001D0007120D2012830D3009820D2010C30D300F6
:1001E0009820D2010130D3009820D2010630D300EC
:1001F00098200530D4005C207C294E080C3A031965
:100200000B29063A03191329073A03191329053A4A
:10021000031927292C29D2010130D300982002305C
:10022000D4005C2031290130CF000230D000500BC7
:100230001A291D29C030D1001F298030D10001307A
:100240004F02D107D2015108D30098203129D201A1
:100250001030D300982031290130D2004E08D3004D
:1002600098209D2903081F3983005730F70020305C
:10027000840083138001840AF70B3A29F801F901FD
:10028000FA01FB01FC01FD01FE015030F700A03036
:10029000840083138001840AF70B4A293030F70069
:1002A0002030840083178001840AF70B53298313BD
:1002B000A001840183131F30830583168E15193026
:1002C0009900A63098009030831298004A14CB0110
:1002D00007309F00CC01CD012830840083134C08E7
:1002E00084074D0837208000003803197A29CD0A89
:1002F000CC0A6C294A14BD280230CC00FA30D40054
:100300005C20CC0B7E290C1083168C160C14C0308C
:1003100083128B044A1CB1294A10283084008313AD
:10032000003000040319A429CD010408CC004D10AD
:10033000831B4D140008CE00FD284C088400831355
:100340004D188317840A9029CB014B081F3C031CCE
:10035000B02928304B07840083138001CB0AA529DC
:0A036000CB018A290030F800630089
:02400E00383F39
:00000001FF
;PIC16F628A
;CRC=7C56  CREATED="25-fev-14 11:49"
