:1000000001308A002A290000FF00030E8301A100AD
:100010007F08A0000A08A7008A01A00E0408A20019
:100020007708A3007808A4007908A5007A08A6003C
:10003000831383128C308400801E20288C1A3D2864
:100040008C308400001C26280C18372822088400D5
:100050002308F7002408F8002508F9002608FA000C
:1000600027088A00210E8300FF0E7F0E09000C1066
:10007000900128140C108A1126288C125108D10ADC
:10008000293E840083138C1E43281A0880002930DF
:1000900051078400831380018E018F018E0185300A
:1000A00090008C128A1126285A308400831300088D
:1000B000031968280130F800F701F70B5D28F80BE9
:1000C0005C284A30F700F70B63286628800B5A2813
:1000D00008005B186D2805136E2805178316051395
:1000E0008312DB18752885137628851783168513E8
:1000F00083125B197D2805107E28051483160510D0
:100100008312DB19852885108628851483168510AF
:1001100085118312851583168511831285110800B8
:100120008316051183120511D808031D992805119E
:100130009A280515831605112030F700F70B9E2825
:10014000A1280000851183128511590EDA000F30A5
:10015000DA055A08DB00692059080F39DA00DB009C
:1001600069200130DA00542008008316051183123B
:1001700005118316851183128511831605138312C9
:1001800005138316851383128513831605108312B6
:10019000051083168510831285100F30DA00542065
:1001A0000130D2005208033C031CDE280330DB0080
:1001B00069200530DA005420D20AD2280230DB0050
:1001C0006920D8012830D9009020D8010C30D900FE
:1001D0009020D8010130D9009020D8010630D900F4
:1001E00090200530DA005420602954080C3A031995
:1001F0000329063A03190B29073A03190B29053A73
:1002000003191F292429D8010130D9009020023078
:10021000DA00542029290130D5000230D600560BCF
:1002200012291529C030D70017298030D700013096
:100230005502D707D8015708D90090202929D8019D
:100240001030D900902029290130D8005408D90055
:1002500090207B2903081F3983005730F700203096
:10026000840083138001840AF70B3229F801F90115
:10027000FA01FB01FC01FD01FE015030F700A03046
:10028000840083138001840AF70B42293030F70081
:100290002030840083178001840AF70B4B298313D5
:1002A000A00183168E1519309900A6309800903061
:1002B000831298002814D10107309F008313B528BA
:1002C0000C108C1283168C160C14C03083128B0405
:1002D000281C9C2928102930840083130030000436
:1002E00003198229D3010408D2005310831B53142D
:1002F0000008D400F528520884008313531883178C
:10030000840A6E2929308400831300300004031905
:100310008F2900080C1E8A299900840A8529D10199
:100320005108273C031C9B29293051078400831363
:100330008001D10A9029D10168290030F8006300BA
:02400E00383F39
:00000001FF
;PIC16F628A
;CRC=10E3  CREATED="27-fev-15 17:19"
