:1000000001308A0033290000FF00030E8301A100A4
:100010007F08A0000A08A7008A01A00E0408A20019
:100020007708A3007808A4007908A5007A08A6003C
:10003000831383128C308400801E20288C1A46285B
:100040008C308400001C26280C18402822088400CC
:100050002308F7002408F8002508F9002608FA000C
:1000600027088A00210E8300FF0E7F0E09000A1068
:100070008A100A11820744346F346E3465340034B8
:100080000C10900128140C108A1126288C1251088B
:10009000D10A293E840083138C1E4C281A08800044
:1000A000293051078400831380018E018F018E0156
:1000B000853090008C128A1126285A3084008313D0
:1000C0000008031971280130F800F701F70B6628C2
:1000D000F80B65284A30F700F70B6C286F28800B67
:1000E000632808005B187628051377280517831600
:1000F00005138312DB187E2885137F288517831646
:10010000851383125B19862805108728051483162A
:1001100005108312DB198E2885108F28851483160D
:10012000851085118312851583168511831285111B
:1001300008008316051183120511D808031DA22893
:100140000511A3280515831605112030F700F70BBC
:10015000A728AA280000851183128511590EDA00FC
:100160000F30DA055A08DB00722059080F39DA001F
:10017000DB0072200130DA005D20080083160511D3
:1001800083120511831685118312851183160513B9
:1001900083120513831685138312851383160510A6
:1001A0008312051083168510831285100F30DA0034
:1001B0005D200130D2005208033C031CE7280330C5
:1001C000DB0072200530DA005D20D20ADB28023025
:1001D000DB007220D8012830D9009920D8010C30DA
:1001E000D9009920D8010130D9009920D8010630D2
:1001F000D90099200530DA005D207A2954080C3A9C
:1002000003190C29063A03191429073A031914296A
:10021000053A031928292D29D8010130D900992040
:100220000230DA005D2032290130D5000230D600DC
:10023000560B1B291E29C030D70020298030D7003B
:1002400001305502D707D8015708D9009920322923
:10025000D8011030D900992032290130D800540833
:10026000D90099209C2903081F3983005730F700D3
:100270002030840083138001840AF70B3B29F801A6
:10028000F901FA01FB01FC01FD01FE015030F7000C
:10029000A030840083138001840AF70B4B2930308F
:1002A000F7002030840083178001840AF70B54295B
:1002B0008313A00183168E1519309900A63098007B
:1002C0009030831298002814D10107309F008313C7
:1002D000D201D301293084008313520884075308C4
:1002E00037208000003803197829D30AD20A6A29F6
:1002F0002814BE280230D200FA30DA005D20D20B7A
:100300007C290C108C1283168C160C14C0308312AE
:100310008B04281CBD292810293084008313003049
:1003200000040319A329D3010408D2005310831B2E
:1003300053140008D400FE28520884008313531875
:100340008317840A8F292930840083130030000426
:100350000319B02900080C1EAB299900840AA629AC
:10036000D1015108273C031CBC29293051078400C6
:1003700083138001D10AB129D10189290030F80005
:02038000630018
:02400E00383F39
:00000001FF
;PIC16F628A
;CRC=D616  CREATED="26-fev-15 08:49"
