:1000000001308A008F290000FF00030E8301A10048
:100010007F08A0000A08A7008A01A00E0408A20019
:100020007708A3007808A4007908A5007A08A6003C
:10003000831383128C308400801E20288C1A44285D
:100040008B1E24280B193E28220884002308F70061
:100050002408F8002508F9002608FA0027088A0075
:10006000210E8300FF0E7F0E09000A108A100A116C
:10007000820744346F346E34653400340B118B12B4
:100080004B140B118A1124288C124C080F3C031CB2
:100090005F284808013C031C5F28480ED700F03059
:1000A000D7054C08CC0A5707283E840083138C1EC2
:1000B00057281A0880000B118B1681016128CC018A
:1000C000C801480ED700F030D70501304C02570761
:1000D000283E8400831300080A3C031D8228480E32
:1000E000D700F030D70501304C025707283E840076
:1000F00083138001C80ACC014808013C03188228F8
:100100000130C800480ED700F030D70501304C024E
:100110005707283E8400831300080C3C031D9D28CC
:10012000480ED700F030D70501304C025707283E63
:10013000840083138001C801CC01480ED700F03041
:10014000D70501304C025707283E8400831300086E
:100150000D3C031DB728480ED700F030D7050130FD
:100160004C025707283E840083138001CC018C1277
:100170008A11242855308400831300080319CE28DF
:100180000130F800F701F70BC328F80BC2284A30FA
:10019000F700F70BC928CC28800BC0280800561898
:1001A000D3280513D4280517831605138312D618F0
:1001B000DB288513DC2885178316851383125619CF
:1001C000E3280510E4280514831605108312D619B8
:1001D000EB288510EC28851483168510861283126F
:1001E000861683168612831286120800831606125C
:1001F00083120612D308031DFF28061200290616D3
:10020000831606122130F700F70B04298612831299
:100210008612540ED5000F30D5055508D600CF20D4
:1002200054080F39D500D600CF200130D500BA20B0
:100230000800831606128312061283168612831292
:1002400086128316051383120513831685138312F2
:1002500085138316051083120510831685108312EB
:1002600085100F30D500BA200130CD004D08033C79
:10027000031C42290330D600CF200530D500BA2018
:10028000CD0A36290230D600CF20D3012830D40041
:10029000F620D3010C30D400F620D3010130D40075
:1002A000F620D3010630D400F6200530D500BA2060
:1002B000E9294F080C3A03196729063A03196F29EF
:1002C000073A03196F29053A031983298829D301AD
:1002D0000130D400F6200230D500BA208E2901303A
:1002E000D0000230D100510B76297929C030D200DC
:1002F0007B298030D20001305002D207D30152084E
:10030000D400F6208E29D3011030D400F6208E2997
:100310000130D3004F08D400F6208E2908000308CE
:100320001F3983005730F700203084008313800189
:10033000840AF70B9729F801F901FA01FB01FC0186
:10034000FD01FE015030F700A030840083138001CE
:10035000840AF70BA7293030F70020308400831778
:100360008001840AF70BB0298313A0018401831351
:100370001F30830583168E1519309900A63098001A
:100380009030831298004B14CC0107309F00C901B4
:1003900049080F3C031CD8292830490784008313DF
:1003A000800138304907840083138001C90AC829B5
:1003B000CD01CE013830840083134D0884074E08E8
:1003C0003520800000380319E829CE0ACD0ADA2941
:1003D00019290F30D500BA2083160108C039013819
:1003E000810083120B1183168C1683128B12C0307E
:1003F0008B044B1C432A0C30CF0059212830840039
:100400008313003000040319152ACE010408CD001F
:100410004E10831B4E140008CF0059214D08840054
:1004200083134E188317840A012A0A30CF005921FA
:100430003830840083130030000403192F2ACE01C2
:100440000408CD004E10831B4E140008CF00592124
:100450004D08840083134E188317840A1B2AC90190
:1004600049080F3C031C402A2830490784008313A5
:10047000800138304907840083138001C90A302A7B
:0E048000C801CC014B10F9290030F8006300D0
:02400E00183F59
:00000001FF
;PIC16F628A
;CRC=A31F  CREATED="22-abr-13 08:39"
