:1000000000308A00DA280000513084008313000891
:10001000031918280130F800F701F70B0D28F80B29
:100020000C284A30F700F70B13281628800B0A28F3
:10003000080052181D2805131E28051783160513DE
:100040008312D21825288513262885178316851331
:10005000831252192D2805102E2805148316051019
:100060008312D219352885103628851483168510F9
:100070008511831285158316851183128511080059
:100080008316051183120511CF08031D4928051198
:100090004A280515831605112030F700F70B4E2866
:1000A00051280000851183128511500ED1000F30A8
:1000B000D1055108D200192050080F39D100D200C3
:1000C00019200130D1000420080083160511831285
:1000D000051183168511831285118316051383126A
:1000E0000513831685138312851383160510831257
:1000F000051083168510831285100F30D10004205F
:100100000130C9004908033C031C8E280330D2008B
:1001100019200530D1000420C90A82280230D200FB
:100120001920CF012830D0004020CF010C30D00062
:100130004020CF010130D0004020CF010630D00058
:1001400040200530D10004200E294B080C3A031939
:10015000B328063A0319BB28073A0319BB28053A06
:100160000319CF28D428CF010130D000402002301D
:10017000D1000420D9280130CC000230CD004D0B35
:10018000C228C528C030CE00C7288030CE0001303C
:100190004C02CE07CF014E08D0004020D928CF0115
:1001A0001030D0004020D9280130CF004B08D000BB
:1001B00040202C2903081F3983005730F7002030D6
:1001C000840083138001840AF70BE228F801F90107
:1001D000FA01FB01FC01FD01FE015030F700A030E7
:1001E000840083138001840AF70BF2283030F70073
:1001F0002030840083178001840AF70BFB288313C7
:10020000A00183168E1519309900A6309800903001
:100210008312980007309F008313652820308400E4
:1002200083138403840A8C1E13291A0880000D305E
:100230000002031D12298001203084008313003046
:10024000000403193329CA010408C9004A10831B9A
:100250004A140008CB00A5284908840083134A18D3
:100260008317840A1F29C8014808273C031C3F291B
:1002700020304807840083138001C80A34290E29DE
:060280000030F8006300ED
:02400E00703F01
:00000001FF
;PIC16F628A
;CRC=10E7  CREATED="27-fev-15 15:59"
