:1000000000308A00E42800000A108A100A118207D2
:100010000C3444346F346E3465340034283084003A
:1000200083130008031922280130F800F701F70BA9
:100030001728F80B16284A30F700F70B1D28202840
:10004000800B1428080029182728051328280517CD
:10005000831605138312A9182F28851330288517B6
:10006000831685138312291937280510382805149B
:10007000831605108312A9193F288510402885147E
:1000800083168510851183128515831685118312B9
:10009000851108008316051183120511A608031D9A
:1000A0005328051154280515831605112030F70033
:1000B000F70B58285B280000851183128511270E45
:1000C000A8000F30A8052808A900232027080F3909
:1000D000A800A90023200130A8000E2008008316E4
:1000E000051183120511831685118312851183165C
:1000F0000513831205138316851383128513831644
:1001000005108312051083168510831285100F3099
:10011000A8000E200130A1002108033C031C9828F0
:100120000330A90023200530A8000E20A10A8C2846
:100130000230A9002320A6012830A7004A20A601EA
:100140000C30A7004A20A6010130A7004A20A601D2
:100150000630A7004A200530A8000E2018292208E2
:100160000C3A0319BD28063A0319C528073A0319A2
:10017000C528053A0319D928DE28A6010130A700B1
:100180004A200230A8000E20E3280130A3000230EC
:10019000A400240BCC28CF28C030A500D128803063
:1001A000A50001302302A507A6012508A7004A20C3
:1001B000E328A6011030A7004A20E3280130A6005A
:1001C0002208A7004A20080003081F39830057307F
:1001D000F7002030840083138001840AF70BEC2899
:1001E000F801F901FA01FB01FC01FD01FE015030AB
:1001F000F700A030840083138001840AF70BFC28E9
:100200003030F7002030840083178001840AF70B18
:1002100005298313A00183168E1519309900A63085
:10022000980090308312980007309F0083136F2846
:100230000230A100FA30A8000E20A10B1A29A1015A
:1002400021080420A10AF700A200AF2005302102F6
:10025000031D20298C1E2A291A08A100A200AF2004
:080260002A290030F8006300B8
:02400E00383F39
:00000001FF
;PIC16F628A
;CRC=7386  CREATED="26-fev-15 17:22"
