:1000000001308A006A290000FF00030E8301A1006D
:100010007F08A0000A08A7008A01A00E0408A20019
:100020007708A3007808A4007908A5007A08A6003C
:10003000831383128C308400801E20288C1A46285B
:100040008C308400001C26280C18402822088400CC
:100050002308F7002408F8002508F9002608FA000C
:1000600027088A00210E8300FF0E7F0E09000A1068
:100070008A100A11820744346F346E3465340034B8
:100080000C10900128140C108A1126288C122908B3
:10009000A90AA03E840083138C1E4C281A088000F5
:1000A000A03029078400831380018F018E018530E1
:1000B00090008C128A1126282830840083170008AB
:1000C000031970280130F800F701F70B6528F80BC9
:1000D00064284A30F700F70B6B286E28800B6228E3
:1000E0000800031729187828031305137A28031723
:1000F000031305178316051383120317A918842801
:100100000313851386280317031385178316851396
:100110008312031729199028031305109228031737
:10012000031305148316051083120317A9199C28BD
:10013000031385109E280317031385148316851057
:100140008511831285158316851183128511080088
:1001500083160511831205110317A608031DB42881
:1001600003130511B628031703130515831605118C
:100170002030F700F70BBA28BD2800008511831244
:1001800085110317270EA8000F30A8052808A9001D
:1001900003137120031727080F39A800A9000313C0
:1001A000712001300317A80003135C200800831698
:1001B000051183120511831685118312851183168B
:1001C0000513831205138316851383128513831673
:1001D00005108312051083168510831285100F30C9
:1001E0000317A80003135C2001300317A0002008A8
:1001F000033C031C07290330A900031371200530B9
:100200000317A80003135C200317A00AF728023085
:10021000A900031371200317A6012830A7000313B8
:10022000A8200317A6010C30A7000313A82003176A
:10023000A6010130A7000313A8200317A60106306A
:10024000A7000313A82005300317A80003135C20A0
:10025000B829031722080C3A031303193929063A5F
:1002600003194529073A03194529053A03195B295A
:1002700062290317A6010130A7000313A82002304A
:100280000317A80003135C20692901300317A3009A
:100290000230A400240B4D295029C030A50052295A
:1002A0008030A50001302302A507A6012508A7007C
:1002B0000313A82069290317A6011030A700031310
:1002C000A820692901300317A6002208A7000313FC
:1002D000A820DF2903081F3983005730F70020309A
:1002E000840083138001840AF70B7229F801F90155
:1002F000FA01FB01FC01FD01FE015030F700A030C6
:10030000840083138001840AF70B82293030F700C0
:100310002030840083178001840AF70B8B29831314
:10032000A001840183131F30830583168E151930B5
:100330009900A63098009030831298002814A901E3
:1003400007309F000317A001A101A0308400831390
:100350002008840721080313372080000038031980
:10036000B6290317A10AA00AA52903132814D72820
:1003700002300317A000FA30A80003135C20031713
:10038000A00BBB2903130C1083168C160C14C03061
:1003900083128B04281CF6292810A03084008313B4
:1003A000003000040319E8290317A1010408A00084
:1003B0002110831B21140008A2000313292903170D
:1003C00020088400831321188317840A0313D0297B
:1003D000A90129081F3C031CF429A0302907840027
:1003E00083138001A90AE929A9016300CA29003001
:0403F000F8006300AE
:02400E00383F39
:00000001FF
;PIC16F628A
;CRC=C952  CREATED="12-set-14 11:10"
