:1000000001308A0053290000FF00030E8301A10084
:100010007F08A0000A08A7008A01A00E0408A20019
:100020007708A3007808A4007908A5007A08A6003C
:10003000831383128C308400801E20288C1A4B2856
:100040008C308400001C26280C18452822088400C7
:100050002308F7002408F8002508F9002608FA000C
:1000600027088A00210E8300FF0E7F0E09000A1068
:100070008A100A11820700340A108A100A118207B6
:1000800044346F346E34653400340C1090016714BE
:100090000C108A1126288C1268081E3C031C5F284D
:1000A0006808E80A283E840083138C1E55281A0825
:1000B0008000283068078400831380017028F301D2
:1000C000F4012830840083137308840774083720F0
:1000D0008000003803196F28F40AF30A6128E80148
:1000E0008F018E01853090008C128A112628713084
:1000F00084008313000803198B280130F800F701EE
:10010000F70B8028F80B7F284A30F700F70B86287A
:100110008928800B7D2808007218902805139128E3
:10012000051783160513F2189928831285139B2847
:10013000831683128517831685137219A3288312D9
:100140000510A52883168312051483160510F219CD
:10015000AD2883128510AF28831683128514831669
:1001600085108612831286168316861283128612D3
:1001700008008316061283120612EF08031DC22818
:100180000612C3280616831606122030F700F70B56
:10019000C728CA280000861283128612700EF1004A
:1001A0000F30F1057108F2008C2070080F39F10052
:1001B000F2008C200130F10077200800831606122F
:1001C0008312061283168612831286128316051373
:1001D0008312051383168513831285138316051066
:1001E0008312051083168510831285100F30F100DD
:1001F00077200130E9006908033C031C072903301C
:10020000F2008C200530F1007720E90AFB2802304B
:10021000F2008C20EF012830F000B920EF010C3003
:10022000F000B920EF010130F000B920EF010630F5
:10023000F000B9200530F10077209C296B080C3ABA
:1002400003192C29063A03193429073A03193429CA
:10025000053A031948294D29EF010130F000B92072
:100260000230F100772052290130EC000230ED001D
:100270006D0B3B293E29C030EE0040298030EE0056
:1002800001306C02EE07EF016E08F000B920522930
:10029000EF011030F000B92052290130EF006B0857
:1002A000F000B920080003081F3983005730F70019
:1002B0002030840083138001840AF70B5B29F80146
:1002C000F901FA01FB01FC01FD01FE015030F700CC
:1002D000A030840083138001840AF70B6B2930302F
:1002E000F7002030840083178001840AF70B7429FB
:1002F0008313A001840183131F30830583168E1599
:1003000019309900A6309800903083129800671435
:10031000E80107309F00E901EA01283084008313D7
:10032000690884076A083C208000003803199B296B
:10033000EA0AE90A8D29DE280F30F10077200C1037
:1003400083168C160C14C03083128B04671CC529CD
:100350000C30EB001E212830840083130030000491
:100360000319C229EA010408E9006A10831B6A1410
:100370000008EB001E216908840083136A188317A4
:10038000840AAE29A801E8016710A6290030F80008
:02039000630008
:02400E00183F59
:00000001FF
;PIC16F628A
;CRC=B05F  CREATED="19-jul-13 14:41"
