:1000000001308A0091290000FF00030E8301A10046
:100010007F08A0000A08A7008A01A00E0408A20019
:100020007708A3007808A4007908A5007A08A6003C
:10003000831383128C308400801E20288C1A46285B
:100040008B1E24280B194028220884002308F7005F
:100050002408F8002508F9002608FA0027088A0075
:10006000210E8300FF0E7F0E09000A108A100A116C
:100070008207503472346F346E3474346F34003409
:100080000B118B124B140B118A1124288C124C0863
:100090000F3C031C61284808013C031C6128480EE2
:1000A000D700F030D7054C08CC0A5707283E84000B
:1000B00083138C1E59281A0880000B118B1681019E
:1000C0006328CC01C801480ED700F030D7050130B5
:1000D0004C025707283E8400831300080A3C031D86
:1000E0008428480ED700F030D70501304C0257075E
:1000F000283E840083138001C80ACC014808013CD3
:10010000031884280130C800480ED700F030D70506
:1001100001304C025707283E8400831300080C3C32
:10012000031D9F28480ED700F030D70501304C0240
:100130005707283E840083138001C801CC01480E74
:10014000D700F030D70501304C025707283E840015
:10015000831300080D3C031DB928480ED700F0306A
:10016000D70501304C025707283E840083138001D5
:10017000CC018C128A112428553084008313000886
:100180000319D0280130F800F701F70BC528F80B48
:10019000C4284A30F700F70BCB28CE28800BC228A2
:1001A00008005618D5280513D628051783160513F9
:1001B0008312D618DD288513DE288517831685134C
:1001C00083125619E5280510E62805148316051034
:1001D0008312D619ED288510EE2885148316851014
:1001E00086128312861683168612831286120800E0
:1001F0008316061283120612D308031D0129061264
:1002000002290616831606122130F700F70B06297D
:10021000861283128612540ED5000F30D50555086C
:10022000D600D12054080F39D500D600D120013096
:10023000D500BC200800831606128312061283160E
:1002400086128312861283160513831205138316F2
:1002500085138312851383160510831205108316E8
:100260008510831285100F30D500BC200130CD00E1
:100270004D08033C031C44290330D600D12005302F
:10028000D500BC20CD0A38290230D600D120D301B8
:100290002830D400F820D3010C30D400F820D3014A
:1002A0000130D400F820D3010630D400F820053006
:1002B000D500BC20EB294F080C3A03196929063AEE
:1002C00003197129073A03197129053A0319852978
:1002D0008A29D3010130D400F8200230D500BC2097
:1002E00090290130D0000230D100510B78297B29B0
:1002F000C030D2007D298030D20001305002D207B8
:10030000D3015208D400F8209029D3011030D40032
:10031000F82090290130D3004F08D400F82090290C
:10032000080003081F3983005730F700203084008D
:1003300083138001840AF70B9929F801F901FA0166
:10034000FB01FC01FD01FE015030F700A0308400EC
:1003500083138001840AF70BA9293030F70020307D
:10036000840083178001840AF70BB2298313A0014C
:10037000840183131F30830583168E15193099006D
:10038000A63098009030831298004B14CC010730AF
:100390009F00C90149080F3C031CDA29283049078E
:1003A000840083138001383049078400831380015F
:1003B000C90ACA29CD01CE013830840083134D0803
:1003C00084074E083520800000380319EA29CE0A38
:1003D000CD0ADC291B290F30D500BC20831601086B
:1003E000C0390138810083120B1183168C168312D9
:1003F0008B12C0308B044B1C452A0C30CF005B2184
:10040000283084008313003000040319172ACE011A
:100410000408CD004E10831B4E140008CF005B2152
:100420004D08840083134E188317840A032A0A3068
:10043000CF005B213830840083130030000403199F
:10044000312ACE010408CD004E10831B4E14000843
:10045000CF005B214D08840083134E188317840A54
:100460001D2AC90149080F3C031C422A28304907AC
:10047000840083138001383049078400831380018E
:10048000C90A322AC801CC014B10FB290030F80000
:02049000630007
:02400E00183F59
:00000001FF
;PIC16F628A
;CRC=1E96  CREATED="17-out-12 18:43"
