:1000000001308A004E290000FF00030E8301A10089
:100010007F08A0000A08A7008A01A00E0408A20019
:100020007708A3007808A4007908A5007A08A6003C
:10003000831383128C308400801E20288C1A4C2855
:100040008C308400001C26280C18462822088400C6
:100050002308F7002408F8002508F9002608FA000C
:1000600027088A00210E8300FF0E7F0E09000A1068
:100070008A100A11820700340A108A100A118207B6
:1000800044346F346E346534323400340C109001D3
:100090004D140C108A1126288C124E081E3C031C8D
:1000A00060284E08CE0A283E840083138C1E5628F2
:1000B0001A08800028304E078400831380017128BD
:1000C000D901DA01283084008313590884075A08BB
:1000D00037208000003803197028DA0AD90A62280C
:1000E000CE018F018E01853090008C128A11262856
:1000F000573084008313000803198C280130F8005E
:10010000F701F70B8128F80B80284A30F700F70B2E
:1001100087288A28800B7E28080058189128051304
:1001200092280517831605138312D818992885136A
:100130009A2885178316851383125819A12805104C
:10014000A2280514831605108312D819A928851032
:10015000AA288514831685108612831286168316A4
:100160008612831286120800831606128312061264
:10017000D508031DBD280612BE28061683160612D2
:100180002030F700F70BC228C52800008612831222
:100190008612560ED7000F30D7055708D8008D208D
:1001A00056080F39D700D8008D200130D7007820AD
:1001B0000800831606128312061283168612831213
:1001C0008612831605138312051383168513831273
:1001D000851383160510831205108316851083126C
:1001E00085100F30D70078200130CF004F08033C36
:1001F000031C02290330D8008D200530D700782059
:10020000CF0AF6280230D8008D20D5012830D6003C
:10021000B420D5010C30D600B420D5010130D60071
:10022000B420D5010630D600B4200530D7007820A0
:100230009B2951080C3A03192729063A03192F293B
:10024000073A03192F29053A031943294829D501EB
:100250000130D600B4200230D70078204D2901307B
:10026000D2000230D300530B36293929C030D400D4
:100270003B298030D40001305202D407D501540804
:10028000D600B4204D29D5011030D600B4204D2918
:100290000130D5005108D600B420080003081F39EA
:1002A00083005730F7002030840083138001840AD4
:1002B000F70B5629F801F901FA01FB01FC01FD01D8
:1002C000FE015030F700A030840083138001840ABF
:1002D000F70B66293030F700203084008317800147
:1002E000840AF70B6F298313A001840183131F3045
:1002F000830583168E1519309900A630980090302A
:10030000831298004D14CE0107309F00831686118A
:1003100083128611CF01D0012830840083134F0847
:10032000840750083C208000003803199A29D00A1D
:10033000CF0A8C29D9280F30D70078200C108316CB
:100340008C160C14C03083128B044D1CC4290C3045
:10035000D1001921283084008313003000040319D0
:10036000C129D0010408CF005010831B501400088D
:10037000D10019214F088400831350188317840A71
:10038000AD29A801CE014D10A5290030F800630069
:02400E00183F59
:00000001FF
;PIC16F628A
;CRC=E35A  CREATED="03-set-13 11:46"
