:1000000001308A00F3290000FF00030E8301A100E4
:100010007F08A0000A08A7008A01A00E0408A20019
:100020007708A3007808A4007908A5007A08A6003C
:10003000831383128C308400801E20288C1AB328EE
:100040008B1E24280B193E28220884002308F70061
:100050002408F8002508F9002608FA0027088A0075
:10006000210E8300FF0E7F0E09000A108A100A116C
:10007000820744346F346E34653400340B118B12B4
:100080004C140B118A1124285E184828051349289E
:100090000517831605138312DE185028851351287F
:1000A00085178316851383125E1958280510592861
:1000B0000514831605108312DE1960288510612847
:1000C000851483168510861283128616831686126F
:1000D0008312861208005D30840083130008031920
:1000E0007F280130F800F701F70B7428F80B73280C
:1000F0004A30F700F70B7A287D28800B712808001A
:100100008316061283120612DB08031D89280612C5
:100110008A280616831606122130F700F70B8E2860
:100120008612831286125C0EDD000F30DD055D083D
:10013000DE0044205C080F39DD00DE004420013081
:10014000DD006B200800590BA628A928C030DA0072
:10015000AB288030DA0001305802DA07DB015A0898
:10016000DC00802008008C124D080F3C031CCE28B8
:100170004908013C031CCE28490ED800F030D805B0
:100180004D08CD0A5807293E840083138C1EC628CB
:100190001A0880000B118B168101D028CD01C901EE
:1001A000490ED800F030D80501304D025807293EDD
:1001B0008400831300080A3C031DF6280130D80090
:1001C0000230D900A320490ED800F030D805013004
:1001D0004D025807293E840083138001C90ACD01CE
:1001E0004908013C0318F6280130C900490ED8001F
:1001F000F030D80501304D025807293E84008313A2
:1002000000080C3C031D1529DB010130DC008020B7
:10021000490ED800F030D80501304D025807293E6C
:10022000840083138001C901CD01490ED800F0304C
:10023000D80501304D025807293E84008313000879
:100240000D3C031D34290130D8000230D900A32011
:10025000490ED800F030D80501304D025807293E2C
:10026000840083138001CD018C128A112428831607
:1002700006128312061283168612831286128316C2
:1002800005138312051383168513831285138316B2
:100290000510831205108316851083128510A8019E
:1002A0008B1BA8178B130F30DD006B20A81B8B173F
:1002B0000130CE004E08033C031C7229A8018B1BA1
:1002C000A8178B130330DE004420A81B8B17A8014E
:1002D0008B1BA8178B130530DD006B20A81B8B1719
:1002E000CE0A5A29A8018B1BA8178B130230DE00F7
:1002F0004420A81B8B17A8018B1BA8178B13DB01AD
:100300002830DC008020A81B8B17A8018B1BA817A6
:100310008B13DB010C30DC008020A81B8B17A8019D
:100320008B1BA8178B13DB010130DC008020A81B7E
:100330008B17A8018B1BA8178B13DB010630DC0081
:100340008020A81B8B17A8018B1BA8178B130530C7
:10035000DD006B20A81B8B174D2A50080C3A03199F
:10036000BB29063A0319CF29073A0319CF29053AC1
:100370000319DB29E629A8018B1BA8178B13DB01C6
:100380000130DC008020A81B8B17A8018B1BA8174D
:100390008B130230DD006B20A81B8B17F229A801FC
:1003A0008B1BA8178B130130D8000230D900A32073
:1003B000A81B8B17F229A8018B1BA8178B13DB0135
:1003C0001030DC008020A81B8B17F229A8018B1BA2
:1003D000A8178B130130DB005008DC008020A81B1D
:1003E0008B17F229080003081F3983005730F700E4
:1003F0002030840083138001840AF70BFB29F80165
:10040000F901FA01FB01FC01FD01FE015030F7008A
:10041000A030840083138001840AF70B0B2A30304C
:10042000F7002030840083178001840AF70B142A18
:100430008313A001840183131F30830583168E1557
:1004400019309900A63098009030831298004C140F
:10045000CD0107309F00CA014A080F3C031C3C2A0B
:1004600029304A0784008313800139304A07840009
:1004700083138001CA0A2C2ACE01CF0139308400AF
:1004800083134E0884074F08352080000038031975
:100490004C2ACF0ACE0A3E2A3729A8018B1BA8175F
:1004A0008B130F30DD006B20A81B8B178316010800
:1004B000C0390138810083120B1183168C16831208
:1004C0008B12C0308B044C1CA72A29308400831364
:1004D0000030000403197C2ACF010408CE004F101D
:1004E000831B4F140008D000AD214E0884008313F5
:1004F0004F188317840A682A393084008313003028
:1005000000040319932ACF010408CE004F10831B67
:100510004F140008D000AD214E08840083134F18FB
:100520008317840A7F2ACA014A080F3C031CA42AA5
:1005300029304A0784008313800139304A07840038
:1005400083138001CA0A942AC901CD014C10632A81
:060550000030F80063001A
:02400E00183F59
:00000001FF
;PIC16F628A
;CRC=18E1  CREATED="22-abr-13 08:27"
