:1000000001308A004D290000FF00030E8301A1008A
:100010007F08A0000A08A7008A01A00E0408A20019
:100020007708A3007808A4007908A5007A08A6003C
:10003000831383128C308400801E20288C1A4B2856
:100040008C308400001C26280C18452822088400C7
:100050002308F7002408F8002508F9002608FA000C
:1000600027088A00210E8300FF0E7F0E09000A1068
:100070008A100A11820700340A108A100A118207B6
:1000800044346F346E34653400340C1090014E14D7
:100090000C108A1126288C124F081E3C031C5F2866
:1000A0004F08CF0A293E840083138C1E55281A0856
:1000B000800029304F078400831380017028DA0103
:1000C000DB012930840083135A0884075B0837203A
:1000D0008000003803196F28DB0ADA0A6128CF0193
:1000E0008F018E01853090008C128A11262858309D
:1000F00084008313000803198B280130F800F701EE
:10010000F70B8028F80B7F284A30F700F70B86287A
:100110008928800B7D2808005918902805139128FC
:100120000517831605138312D91898288513992863
:1001300085178316851383125919A0280510A12845
:100140000514831605108312D919A8288510A9282B
:1001500085148316851086128312861683168612DE
:100160008312861208008316061283120612D6081E
:10017000031DBC280612BD28061683160612203061
:10018000F700F70BC128C4280000861283128612DC
:10019000570ED8000F30D8055808D9008C205708C2
:1001A0000F39D800D9008C200130D8007720080002
:1001B0008316061283120612831686128312861283
:1001C0008316051383120513831685138312851373
:1001D000831605108312051083168510831285106F
:1001E0000F30D80077200130D0005008033C031CAA
:1001F00001290330D9008C200530D8007720D00A9F
:10020000F5280230D9008C20D6012830D700B32041
:10021000D6010C30D700B320D6010130D700B3206F
:10022000D6010630D700B3200530D80077209A29B0
:1002300052080C3A03192629063A03192E29073ABF
:1002400003192E29053A031942294729D6010130FD
:10025000D700B3200230D80077204C290130D300DA
:100260000230D400540B35293829C030D5003A2942
:100270008030D50001305302D507D6015508D7008C
:10028000B3204C29D6011030D700B3204C290130BF
:10029000D6005208D700B320B72903081F398300BE
:1002A0005730F7002030840083138001840AF70B55
:1002B0005529F801F901FA01FB01FC01FD01FE01DC
:1002C0005030F700A030840083138001840AF70BBC
:1002D00065293030F7002030840083178001840ABC
:1002E000F70B6E298313A001840183131F3083054C
:1002F00083168E1519309900A6309800903083121D
:1003000098004E14CF0107309F0083168611831288
:100310008611D001D101293084008313500884074D
:1003200051083C208000003803199929D10AD00ACD
:100330008B29D8289630D80077200C1083168C167D
:100340000C14C03083128B044E1CD0294E1029305F
:1003500084008313003000040319BE29D10104086E
:10036000D0005110831B51140008D20018295008E6
:100370008400831351188317840AAA29D001D1015C
:1003800029308400831350088407510837208000E7
:1003900000380319CE29D10AD00AC029A901CF01FA
:0803A000A4290030F8006300FD
:02400E00183F59
:00000001FF
;PIC16F628A
;CRC=DF30  CREATED="04-fev-14 11:28"
