:1000000000308A005F280000FF00030E8301A1007A
:100010007F08A0000A08A7008A01A00E0408A20019
:100020007708A3007808A4007908A5007A08A6003C
:10003000831383128C308400801E20288C1A492858
:100040008C308400001C26280C18372822088400D5
:100050002308F7002408F8002508F9002608FA000C
:1000600027088A00210E8300FF0E7F0E09000C1066
:100070009001CA014A081F3C031C452828304A0742
:10008000840083138001CA0A3A28CA010C108A111D
:1000900026288C124A08CA0A283E840083138C1E24
:1000A0004F281A08800028304A07840083138001F3
:1000B0008F018E01853090008C128A11262803084A
:1000C0001F3983005730F7002030840083138001EC
:1000D000840AF70B6728F801F901FA01FB01FC011A
:1000E000FD01FE015030F700A03084008313800131
:1000F000840AF70B77283030F7002030840083170C
:100100008001840AF70B80288313A00184018313E4
:100110001F30830583168E1519309900A63098007C
:10012000903083129800CA0107309F000C1083168C
:100130008C160C14C03083128B049D280030F800FC
:0201400063005A
:02400E00383F39
:00000001FF
;PIC16F628A
;CRC=ED1E  CREATED="25-fev-14 11:37"
