:1000000000308A0019280000213084008313000882
:10001000031918280130F800F701F70B0D28F80B29
:100020000C284A30F700F70B13281628800B0A28F3
:100030003E28840183131F30830583168E150730F5
:1000400083129F00831605100130831285068316E4
:100050008510023083128506831685138030831243
:1000600085068316861220308312860683160612B2
:100070001030831286060A30A1000428222800309E
:04008000F800630021
:02400E00193F58
:00000001FF
;PIC16F628A
;CRC=92CC  CREATED="01-out-12 18:50"
